{
  "_format": "hh-sol-artifact-1",
  "contractName": "SwearITFactory",
  "sourceName": "contracts/swearit_factory.sol",
  "abi": [
    {
      "inputs": [],
      "stateMutability": "nonpayable",
      "type": "constructor"
    },
    {
      "inputs": [
        {
          "internalType": "string",
          "name": "name",
          "type": "string"
        }
      ],
      "name": "createSwearITContract",
      "outputs": [
        {
          "internalType": "contract SwearIT",
          "name": "newSwearITContract",
          "type": "address"
        }
      ],
      "stateMutability": "nonpayable",
      "type": "function"
    },
    {
      "inputs": [],
      "name": "getAllSwearITContracts",
      "outputs": [
        {
          "internalType": "string[]",
          "name": "names",
          "type": "string[]"
        },
        {
          "internalType": "address[]",
          "name": "addresses",
          "type": "address[]"
        }
      ],
      "stateMutability": "view",
      "type": "function"
    },
    {
      "inputs": [
        {
          "internalType": "string",
          "name": "name",
          "type": "string"
        }
      ],
      "name": "getSwearITContractByName",
      "outputs": [
        {
          "internalType": "contract SwearIT",
          "name": "",
          "type": "address"
        }
      ],
      "stateMutability": "view",
      "type": "function"
    }
  ],
  "bytecode": "0x6080604052348015600f57600080fd5b5061346e8061001f6000396000f3fe608060405234801561001057600080fd5b50600436106100415760003560e01c80631523f563146100465780631a3bbbb9146100765780636e2be0231461008c575b600080fd5b6100596100543660046103e4565b61009f565b6040516001600160a01b0390911681526020015b60405180910390f35b61007e610132565b60405161006d9291906104e5565b61005961009a3660046103e4565b610308565b6000806000836040516100b29190610589565b908152604051908190036020019020546001600160a01b031690508061012c5760405162461bcd60e51b815260206004820152602560248201527f436f6e7472616374206e6f7420666f756e6420666f722074686520676976656e604482015264206e616d6560d81b606482015260840160405180910390fd5b92915050565b60015460609081908067ffffffffffffffff811115610153576101536103ce565b60405190808252806020026020018201604052801561018657816020015b60608152602001906001900390816101715790505b5092508067ffffffffffffffff8111156101a2576101a26103ce565b6040519080825280602002602001820160405280156101cb578160200160208202803683370190505b50915060005b81811015610302576000600182815481106101ee576101ee6105a5565b906000526020600020018054610203906105bb565b80601f016020809104026020016040519081016040528092919081815260200182805461022f906105bb565b801561027c5780601f106102515761010080835404028352916020019161027c565b820191906000526020600020905b81548152906001019060200180831161025f57829003601f168201915b5050505050905080858381518110610296576102966105a5565b60200260200101819052506000816040516102b19190610589565b9081526040519081900360200190205484516001600160a01b03909116908590849081106102e1576102e16105a5565b6001600160a01b0390921660209283029190910190910152506001016101d1565b50509091565b600081604051610317906103c1565b61032191906105ef565b604051809103906000f08015801561033d573d6000803e3d6000fd5b509050806000836040516103519190610589565b90815260405190819003602001902080546001600160a01b03929092166001600160a01b03199092169190911790556001805480820182556000919091527fb10e2d527612073b26eecdfd717e6a320cf44b4afac2b0732d9fcbe2b7fa0cf6016103bb838261065a565b50919050565b612d1e8061071b83390190565b634e487b7160e01b600052604160045260246000fd5b6000602082840312156103f657600080fd5b813567ffffffffffffffff8082111561040e57600080fd5b818401915084601f83011261042257600080fd5b813581811115610434576104346103ce565b604051601f8201601f19908116603f0116810190838211818310171561045c5761045c6103ce565b8160405282815287602084870101111561047557600080fd5b826020860160208301376000928101602001929092525095945050505050565b60005b838110156104b0578181015183820152602001610498565b50506000910152565b600081518084526104d1816020860160208601610495565b601f01601f19169290920160200192915050565b6000604082016040835280855180835260608501915060608160051b8601019250602080880160005b8381101561053c57605f1988870301855261052a8683516104b9565b9550938201939082019060010161050e565b50508584038187015286518085528782019482019350915060005b8281101561057c5784516001600160a01b031684529381019392810192600101610557565b5091979650505050505050565b6000825161059b818460208701610495565b9190910192915050565b634e487b7160e01b600052603260045260246000fd5b600181811c908216806105cf57607f821691505b6020821081036103bb57634e487b7160e01b600052602260045260246000fd5b60208152600061060260208301846104b9565b9392505050565b601f821115610655576000816000526020600020601f850160051c810160208610156106325750805b601f850160051c820191505b818110156106515782815560010161063e565b5050505b505050565b815167ffffffffffffffff811115610674576106746103ce565b6106888161068284546105bb565b84610609565b602080601f8311600181146106bd57600084156106a55750858301515b600019600386901b1c1916600185901b178555610651565b600085815260208120601f198616915b828110156106ec578886015182559484019460019091019084016106cd565b508582101561070a5787850151600019600388901b60f8161c191681555b5050505050600190811b0190555056fe608060405234801561001057600080fd5b50604051612d1e380380612d1e83398101604081905261002f9161006a565b600480546001600160a01b03191633179055600561004d82826101be565b505061027d565b634e487b7160e01b600052604160045260246000fd5b6000602080838503121561007d57600080fd5b82516001600160401b038082111561009457600080fd5b818501915085601f8301126100a857600080fd5b8151818111156100ba576100ba610054565b604051601f8201601f19908116603f011681019083821181831017156100e2576100e2610054565b8160405282815288868487010111156100fa57600080fd5b600093505b8284101561011c57848401860151818501870152928501926100ff565b600086848301015280965050505050505092915050565b600181811c9082168061014757607f821691505b60208210810361016757634e487b7160e01b600052602260045260246000fd5b50919050565b601f8211156101b9576000816000526020600020601f850160051c810160208610156101965750805b601f850160051c820191505b818110156101b5578281556001016101a2565b5050505b505050565b81516001600160401b038111156101d7576101d7610054565b6101eb816101e58454610133565b8461016d565b602080601f83116001811461022057600084156102085750858301515b600019600386901b1c1916600185901b1785556101b5565b600085815260208120601f198616915b8281101561024f57888601518255948401946001909101908401610230565b508582101561026d5787850151600019600388901b60f8161c191681555b5050505050600190811b01905550565b612a928061028c6000396000f3fe608060405234801561001057600080fd5b50600436106101375760003560e01c8063758dc795116100b8578063c7385f2e1161007c578063c7385f2e146102fe578063cb51bba91461031f578063cd94a2de14610332578063cda3250314610345578063e89e4ed614610358578063f2fde38b1461037e57600080fd5b8063758dc795146102505780637acc0b20146102635780637f643c0b1461028b5780638da5cb5b146102ab5780639ddaf5aa146102d657600080fd5b806339c7dc7b116100ff57806339c7dc7b146101b75780633a650d95146101d75780633f70c2b4146101fd5780635acb766e1461021d5780636c22e0a51461023d57600080fd5b806302ee3a521461013c5780631386dc2d1461015a5780631836b3261461016f5780631f258c041461018f578063399a567c146101a4575b600080fd5b610144610391565b60405161015191906120e2565b60405180910390f35b610162610653565b6040516101519190612146565b61018261017d366004612160565b6106e1565b60405161015191906121d8565b6101a261019d36600461228e565b610894565b005b6101826101b2366004612160565b610a58565b6101ca6101c5366004612160565b610ad3565b6040516101519190612370565b6101ea6101e5366004612160565b610d20565b6040516101519796959493929190612383565b61021061020b366004612160565b610e6b565b60405161015191906123d1565b61023061022b366004612160565b610f78565b60405161015191906123e4565b6101a261024b36600461243b565b61135b565b6101a261025e3660046124df565b6114b0565b610276610271366004612160565b611605565b60405161015199989796959493929190612541565b61029e610299366004612160565b6117e4565b60405161015191906125b2565b6004546102be906001600160a01b031681565b6040516001600160a01b039091168152602001610151565b6102e96102e4366004612160565b611a9d565b60405161015199989796959493929190612609565b61031161030c366004612160565b611b5b565b604051908152602001610151565b61031161032d366004612160565b611b7c565b610311610340366004612160565b611b8c565b6101a2610353366004612643565b611b9c565b61036b610366366004612160565b611d90565b60405161015197969594939291906126fc565b6101a261038c366004612741565b611e5b565b60065460609060009067ffffffffffffffff8111156103b2576103b26121eb565b6040519080825280602002602001820160405280156103eb57816020015b6103d8611f27565b8152602001906001900390816103d05790505b50905060005b60065481101561064d57600080600683815481106104115761041161276a565b90600052602060002001548152602001908152602001600020604051806101200160405290816000820154815260200160018201805461045090612780565b80601f016020809104026020016040519081016040528092919081815260200182805461047c90612780565b80156104c95780601f1061049e576101008083540402835291602001916104c9565b820191906000526020600020905b8154815290600101906020018083116104ac57829003601f168201915b5050505050815260200160028201548152602001600382015481526020016004820180546104f690612780565b80601f016020809104026020016040519081016040528092919081815260200182805461052290612780565b801561056f5780601f106105445761010080835404028352916020019161056f565b820191906000526020600020905b81548152906001019060200180831161055257829003601f168201915b5050505050815260200160058201805461058890612780565b80601f01602080910402602001604051908101604052809291908181526020018280546105b490612780565b80156106015780601f106105d657610100808354040283529160200191610601565b820191906000526020600020905b8154815290600101906020018083116105e457829003601f168201915b50505050508152602001600682015481526020016007820154815260200160088201548152505082828151811061063a5761063a61276a565b60209081029190910101526001016103f1565b50919050565b6005805461066090612780565b80601f016020809104026020016040519081016040528092919081815260200182805461068c90612780565b80156106d95780601f106106ae576101008083540402835291602001916106d9565b820191906000526020600020905b8154815290600101906020018083116106bc57829003601f168201915b505050505081565b6106e9611f76565b6000828152600160208190526040909120015482146107235760405162461bcd60e51b815260040161071a906127b4565b60405180910390fd5b60008281526001602052604090206005015460ff16156107905760405162461bcd60e51b815260206004820152602260248201527f4d696c6573746f6e6520616c72656164792073657420746f20636f6d706c6574604482015261195960f21b606482015260840161071a565b60008281526001602081815260409283902060058101805460ff191684179055835160e08101855281548152928101549183019190915260028101805492939192918401916107de90612780565b80601f016020809104026020016040519081016040528092919081815260200182805461080a90612780565b80156108575780601f1061082c57610100808354040283529160200191610857565b820191906000526020600020905b81548152906001019060200180831161083a57829003601f168201915b50505091835250506003820154602082015260048201546040820152600582015460ff161515606082015260069091015460809091015292915050565b60008781526002602052604090205487146108e85760405162461bcd60e51b8152602060048201526014602482015273141c9bdbd988191bd95cc81b9bdd08195e1a5cdd60621b604482015260640161071a565b6040805160e0810182528881526020808201898152828401898152606084018990526080840188905260a0840187905260c0840186905260008c815260039093529390912082518155905160018201559151909190600282019061094c908261283c565b50606082015160038201556080820151600482019061096b908261283c565b5060a0820151600582015560c0909101516006909101556040805180820190915260028152614f4b60f01b6020918201528551908601207f255b0a2b8a3fdbaa688fa61d60f42b3d0816d173057fd94c232d3c8b175adf1a01610a0d5760008681526020819052604081206008018054916109e5836128fc565b90915550506000878152600260205260408120600801805491610a07836128fc565b91905055505b867f7be3a725aa2b2bff8a492dff0c5f51524538cfd71a54d4a66b37d40950d24370878787878787604051610a4796959493929190612923565b60405180910390a250505050505050565b610a60611f76565b600082815260016020819052604090912001548214610a915760405162461bcd60e51b815260040161071a906127b4565b600160008381526020019081526020016000206040518060e001604052908160008201548152602001600182015481526020016002820180546107de90612780565b610adb611fb8565b6000828152600260205260409020548214610b085760405162461bcd60e51b815260040161071a906127b4565b60026000838152602001908152602001600020604051806101200160405290816000820154815260200160018201548152602001600282018054610b4b90612780565b80601f0160208091040260200160405190810160405280929190818152602001828054610b7790612780565b8015610bc45780601f10610b9957610100808354040283529160200191610bc4565b820191906000526020600020905b815481529060010190602001808311610ba757829003601f168201915b5050505050815260200160038201548152602001600482018054610be790612780565b80601f0160208091040260200160405190810160405280929190818152602001828054610c1390612780565b8015610c605780601f10610c3557610100808354040283529160200191610c60565b820191906000526020600020905b815481529060010190602001808311610c4357829003601f168201915b50505050508152602001600582018054610c7990612780565b80601f0160208091040260200160405190810160405280929190818152602001828054610ca590612780565b8015610cf25780601f10610cc757610100808354040283529160200191610cf2565b820191906000526020600020905b815481529060010190602001808311610cd557829003601f168201915b5050505050815260200160068201548152602001600782015481526020016008820154815250509050919050565b60036020526000908152604090208054600182015460028301805492939192610d4890612780565b80601f0160208091040260200160405190810160405280929190818152602001828054610d7490612780565b8015610dc15780601f10610d9657610100808354040283529160200191610dc1565b820191906000526020600020905b815481529060010190602001808311610da457829003601f168201915b505050505090806003015490806004018054610ddc90612780565b80601f0160208091040260200160405190810160405280929190818152602001828054610e0890612780565b8015610e555780601f10610e2a57610100808354040283529160200191610e55565b820191906000526020600020905b815481529060010190602001808311610e3857829003601f168201915b5050505050908060050154908060060154905087565b610e73611f27565b6000828152602081905260409020548214610ea05760405162461bcd60e51b815260040161071a9061296a565b6000828152602081815260409182902082516101208101909352805483526001810180549192840191610ed290612780565b80601f0160208091040260200160405190810160405280929190818152602001828054610efe90612780565b8015610f4b5780601f10610f2057610100808354040283529160200191610f4b565b820191906000526020600020905b815481529060010190602001808311610f2e57829003601f168201915b505050505081526020016002820154815260200160038201548152602001600482018054610be790612780565b600081815260016020819052604090912001546060908214610fac5760405162461bcd60e51b815260040161071a906127b4565b60085460009067ffffffffffffffff811115610fca57610fca6121eb565b60405190808252806020026020018201604052801561100357816020015b610ff0611fb8565b815260200190600190039081610fe85790505b5090506000805b6008548110156112b05784600260006008848154811061102c5761102c61276a565b9060005260206000200154815260200190815260200160002060010154036112a85760026000600883815481106110655761106561276a565b906000526020600020015481526020019081526020016000206040518061012001604052908160008201548152602001600182015481526020016002820180546110ae90612780565b80601f01602080910402602001604051908101604052809291908181526020018280546110da90612780565b80156111275780601f106110fc57610100808354040283529160200191611127565b820191906000526020600020905b81548152906001019060200180831161110a57829003601f168201915b505050505081526020016003820154815260200160048201805461114a90612780565b80601f016020809104026020016040519081016040528092919081815260200182805461117690612780565b80156111c35780601f10611198576101008083540402835291602001916111c3565b820191906000526020600020905b8154815290600101906020018083116111a657829003601f168201915b505050505081526020016005820180546111dc90612780565b80601f016020809104026020016040519081016040528092919081815260200182805461120890612780565b80156112555780601f1061122a57610100808354040283529160200191611255565b820191906000526020600020905b81548152906001019060200180831161123857829003601f168201915b50505050508152602001600682015481526020016007820154815260200160088201548152505083838151811061128e5761128e61276a565b602002602001018190525081806112a4906128fc565b9250505b60010161100a565b5060008167ffffffffffffffff8111156112cc576112cc6121eb565b60405190808252806020026020018201604052801561130557816020015b6112f2611fb8565b8152602001906001900390816112ea5790505b50905060005b82811015611352578381815181106113255761132561276a565b602002602001015182828151811061133f5761133f61276a565b602090810291909101015260010161130b565b50949350505050565b604051806101200160405280878152602001868152602001858152602001848152602001838152602001828152602001600081526020016000815260200160008152506000808881526020019081526020016000206000820151816000015560208201518160010190816113cf919061283c565b506040820151600282015560608201516003820155608082015160048201906113f8908261283c565b5060a0820151600582019061140d908261283c565b5060c082015160068083019190915560e083015160078301556101009092015160089091015580546001810182556000919091527ff652222313e28459528d920b65115c16c04f3efc82aaedc97be59f3f377c0d3f0186905560405186907f27894d71b01c5df54f51a46bbd9e4e8880ff5b2ef23b7dc260a7b67408b6a6e2906114a0908890889088908890889061299a565b60405180910390a2505050505050565b60008581526020819052604090205485146114dd5760405162461bcd60e51b815260040161071a9061296a565b6040518060e0016040528086815260200185815260200184815260200183815260200182815260200160001515815260200160008152506001600086815260200190815260200160002060008201518160000155602082015181600101556040820151816002019081611550919061283c565b50606082015160038201556080820151600482015560a082015160058201805460ff191691151591909117905560c090910151600690910155600780546001810182556000919091527fa66cc928b5edb82af9bd49922954155ab7b0942694bea4ce44661d9a8736c6880184905560405185907ffb3bd96032deec6b65db3abc0382e476f8db20c5abbf97bcba36c65c077260a7906115f69087908790879087906129eb565b60405180910390a25050505050565b6000602081905290815260409020805460018201805491929161162790612780565b80601f016020809104026020016040519081016040528092919081815260200182805461165390612780565b80156116a05780601f10611675576101008083540402835291602001916116a0565b820191906000526020600020905b81548152906001019060200180831161168357829003601f168201915b5050505050908060020154908060030154908060040180546116c190612780565b80601f01602080910402602001604051908101604052809291908181526020018280546116ed90612780565b801561173a5780601f1061170f5761010080835404028352916020019161173a565b820191906000526020600020905b81548152906001019060200180831161171d57829003601f168201915b50505050509080600501805461174f90612780565b80601f016020809104026020016040519081016040528092919081815260200182805461177b90612780565b80156117c85780601f1061179d576101008083540402835291602001916117c8565b820191906000526020600020905b8154815290600101906020018083116117ab57829003601f168201915b5050505050908060060154908060070154908060080154905089565b60008181526020819052604090205460609082146118145760405162461bcd60e51b815260040161071a9061296a565b60075460009067ffffffffffffffff811115611832576118326121eb565b60405190808252806020026020018201604052801561186b57816020015b611858611f76565b8152602001906001900390816118505790505b5090506000805b6007548110156119fb578460016000600784815481106118945761189461276a565b9060005260206000200154815260200190815260200160002060000154036119f35760016000600783815481106118cd576118cd61276a565b906000526020600020015481526020019081526020016000206040518060e0016040529081600082015481526020016001820154815260200160028201805461191590612780565b80601f016020809104026020016040519081016040528092919081815260200182805461194190612780565b801561198e5780601f106119635761010080835404028352916020019161198e565b820191906000526020600020905b81548152906001019060200180831161197157829003601f168201915b50505091835250506003820154602082015260048201546040820152600582015460ff161515606082015260069091015460809091015283518490849081106119d9576119d961276a565b602002602001018190525081806119ef906128fc565b9250505b600101611872565b5060008167ffffffffffffffff811115611a1757611a176121eb565b604051908082528060200260200182016040528015611a5057816020015b611a3d611f76565b815260200190600190039081611a355790505b50905060005b8281101561135257838181518110611a7057611a7061276a565b6020026020010151828281518110611a8a57611a8a61276a565b6020908102919091010152600101611a56565b600260208190526000918252604090912080546001820154928201805491939291611ac790612780565b80601f0160208091040260200160405190810160405280929190818152602001828054611af390612780565b8015611b405780601f10611b1557610100808354040283529160200191611b40565b820191906000526020600020905b815481529060010190602001808311611b2357829003601f168201915b5050505050908060030154908060040180546116c190612780565b60088181548110611b6b57600080fd5b600091825260209091200154905081565b60068181548110611b6b57600080fd5b60078181548110611b6b57600080fd5b600087815260016020819052604090912001548714611bcd5760405162461bcd60e51b815260040161071a906127b4565b6040518061012001604052808981526020018881526020018781526020018681526020018581526020018481526020018381526020018281526020016000815250600260008a815260200190815260200160002060008201518160000155602082015181600101556040820151816002019081611c4a919061283c565b506060820151600382015560808201516004820190611c69908261283c565b5060a08201516005820190611c7e908261283c565b5060c0820151600682015560e08201516007820155610100909101516008918201556000898152600260205260408120909101805491611cbd836128fc565b90915550506008805460018181019092557ff3f7a9fe364faab93b216da50a3214154f22a0a2b415b23a84c8169e8b636ee30189905560008881526020918252604080822054825291819052908120600701805491611d1b836128fc565b90915550506000878152600160205260408120600601805491611d3d836128fc565b9190505550877f18bac1b13827815ffd7720b7f8fea79695398bde9c1ce41afe68f3c5c90d180e88888888888888604051611d7e9796959493929190612a17565b60405180910390a25050505050505050565b6001602081905260009182526040909120805491810154600282018054919291611db990612780565b80601f0160208091040260200160405190810160405280929190818152602001828054611de590612780565b8015611e325780601f10611e0757610100808354040283529160200191611e32565b820191906000526020600020905b815481529060010190602001808311611e1557829003601f168201915b5050506003840154600485015460058601546006909601549495919490935060ff909116915087565b6004546001600160a01b03163314611ecc5760405162461bcd60e51b815260206004820152602e60248201527f4f6e6c79207468652063757272656e74206f776e65722063616e20706572666f60448201526d3936903a3434b99030b1ba34b7b760911b606482015260840161071a565b600480546001600160a01b0319166001600160a01b0383169081179091556040805182815260208101929092527f850b3df64837d7d518b45f5aa64d104652c3b80eb5b34a8e3d9eb666cb7cdea5910160405180910390a150565b6040518061012001604052806000815260200160608152602001600080191681526020016000815260200160608152602001606081526020016000815260200160008152602001600081525090565b6040518060e001604052806000815260200160008152602001606081526020016000801916815260200160008152602001600015158152602001600081525090565b6040518061012001604052806000815260200160008152602001606081526020016000815260200160608152602001606081526020016000801916815260200160008152602001600081525090565b6000815180845260005b8181101561202d57602081850181015186830182015201612011565b506000602082860101526020601f19601f83011685010191505092915050565b600061012082518452602083015181602086015261206d82860182612007565b91505060408301516040850152606083015160608501526080830151848203608086015261209b8282612007565b91505060a083015184820360a08601526120b58282612007565b91505060c083015160c085015260e083015160e08501526101008084015181860152508091505092915050565b600060208083016020845280855180835260408601915060408160051b87010192506020870160005b8281101561213957603f1988860301845261212785835161204d565b9450928501929085019060010161210b565b5092979650505050505050565b6020815260006121596020830184612007565b9392505050565b60006020828403121561217257600080fd5b5035919050565b80518252602081015160208301526000604082015160e060408501526121a260e0850182612007565b9050606083015160608501526080830151608085015260a0830151151560a085015260c083015160c08501528091505092915050565b6020815260006121596020830184612179565b634e487b7160e01b600052604160045260246000fd5b600082601f83011261221257600080fd5b813567ffffffffffffffff8082111561222d5761222d6121eb565b604051601f8301601f19908116603f01168101908282118183101715612255576122556121eb565b8160405283815286602085880101111561226e57600080fd5b836020870160208301376000602085830101528094505050505092915050565b600080600080600080600060e0888a0312156122a957600080fd5b8735965060208801359550604088013567ffffffffffffffff808211156122cf57600080fd5b6122db8b838c01612201565b965060608a0135955060808a01359150808211156122f857600080fd5b506123058a828b01612201565b93505060a0880135915060c0880135905092959891949750929550565b60006101208251845260208301516020850152604083015181604086015261234c82860182612007565b915050606083015160608501526080830151848203608086015261209b8282612007565b6020815260006121596020830184612322565b87815286602082015260e0604082015260006123a260e0830188612007565b86606084015282810360808401526123ba8187612007565b60a0840195909552505060c0015295945050505050565b602081526000612159602083018461204d565b600060208083016020845280855180835260408601915060408160051b87010192506020870160005b8281101561213957603f19888603018452612429858351612322565b9450928501929085019060010161240d565b60008060008060008060c0878903121561245457600080fd5b86359550602087013567ffffffffffffffff8082111561247357600080fd5b61247f8a838b01612201565b9650604089013595506060890135945060808901359150808211156124a357600080fd5b6124af8a838b01612201565b935060a08901359150808211156124c557600080fd5b506124d289828a01612201565b9150509295509295509295565b600080600080600060a086880312156124f757600080fd5b8535945060208601359350604086013567ffffffffffffffff81111561251c57600080fd5b61252888828901612201565b9598949750949560608101359550608001359392505050565b60006101208b835280602084015261255b8184018c612007565b9050896040840152886060840152828103608084015261257b8189612007565b905082810360a084015261258f8188612007565b60c0840196909652505060e0810192909252610100909101529695505050505050565b600060208083016020845280855180835260408601915060408160051b87010192506020870160005b8281101561213957603f198886030184526125f7858351612179565b945092850192908501906001016125db565b60006101208b83528a60208401528060408401526126298184018b612007565b9050886060840152828103608084015261257b8189612007565b600080600080600080600080610100898b03121561266057600080fd5b8835975060208901359650604089013567ffffffffffffffff8082111561268657600080fd5b6126928c838d01612201565b975060608b0135965060808b01359150808211156126af57600080fd5b6126bb8c838d01612201565b955060a08b01359150808211156126d157600080fd5b506126de8b828c01612201565b93505060c0890135915060e089013590509295985092959890939650565b87815286602082015260e06040820152600061271b60e0830188612007565b606083019690965250608081019390935290151560a083015260c0909101529392505050565b60006020828403121561275357600080fd5b81356001600160a01b038116811461215957600080fd5b634e487b7160e01b600052603260045260246000fd5b600181811c9082168061279457607f821691505b60208210810361064d57634e487b7160e01b600052602260045260246000fd5b60208082526018908201527f4d696c6573746f6e6520646f6573206e6f742065786973740000000000000000604082015260600190565b601f821115612837576000816000526020600020601f850160051c810160208610156128145750805b601f850160051c820191505b8181101561283357828155600101612820565b5050505b505050565b815167ffffffffffffffff811115612856576128566121eb565b61286a816128648454612780565b846127eb565b602080601f83116001811461289f57600084156128875750858301515b600019600386901b1c1916600185901b178555612833565b600085815260208120601f198616915b828110156128ce578886015182559484019460019091019084016128af565b50858210156128ec5787850151600019600388901b60f8161c191681555b5050505050600190811b01905550565b60006001820161291c57634e487b7160e01b600052601160045260246000fd5b5060010190565b86815260c06020820152600061293c60c0830188612007565b86604084015282810360608401526129548187612007565b6080840195909552505060a00152949350505050565b602080825260169082015275141c9bd91d58dd08191bd95cc81b9bdd08195e1a5cdd60521b604082015260600190565b60a0815260006129ad60a0830188612007565b86602084015285604084015282810360608401526129cb8186612007565b905082810360808401526129df8185612007565b98975050505050505050565b848152608060208201526000612a046080830186612007565b6040830194909452506060015292915050565b87815260e060208201526000612a3060e0830189612007565b8760408401528281036060840152612a488188612007565b905082810360808401526123ba818761200756fea264697066735822122078c7ef27e50cdd81c6add02bf6237ff5719a4f5a72c7df6818af19a37893a42264736f6c63430008190033a26469706673582212204093695b280bd4e30e246207c348b214415425190a3b0171494b082d21619d5464736f6c63430008190033",
  "linkReferences": {},
  "deployedLinkReferences": {}
}